:020000040000FA
:060000000A128A11122809
:10000800FE00030E83120313A4000408A5000A08C7
:10001800A6007F08A7000A128A115F290A128A110E
:10002800152883134530FD000730FE000830FF0017
:100038003D3084000A128A1179260A128A110A129E
:100048008A1116270A128A11FD00C501C601C701C7
:10005800C801C901CA01CB01FA01FB01FC018301F6
:100068000A128A1137280A128A11D2260A128A110C
:100078004E300A128A113F220A128A118312031380
:10008800AE01AE0A01300A128A1151250A128A11EC
:1000980001300A128A1128250A128A1183120313C1
:1000A800AE01AE0A02300A128A1151250A128A11CB
:1000B80012300A128A1128250A128A110A128A1184
:1000C800A9260A128A110A128A11EB260A128A1123
:1000D8000A128A11B7260A128A110A128A11FB24F7
:1000E8000A128A110A128A1110270A128A110A1290
:1000F8008A110D260A128A11831603130613861213
:100108008312031306178616831603130514861025
:100118000611831203138610831603130614003086
:100128000A128A119A260A128A1183120313BB0033
:100138003B08C90001300A128A119A260A128A114C
:1001480083120313BB003B08C80002300A128A114D
:100158009A260A128A1183120313BB003B08C700B0
:1001680042080319B828B92802290A128A11A926AF
:100178000A128A1183120313AE01AE0A01300A1261
:100188008A1151250A128A1123300A128A11282548
:100198000A128A11023083120313BB003B08B20013
:1001A8000230BC003C08B30062300A128A11B02346
:1001B8000A128A11023083120313BB003B08B200F3
:1001C8000730BC003C08B30026300A128A11B0235D
:1001D8000A128A11023083120313BB003B08B200D3
:1001E8000C30BC003C08B3005A300A128A11B02304
:1001F8000A128A1183120313C20130294208031913
:100208000629072930290A128A11A9260A128A11F1
:1002180083120313AE01AE0A01300A128A11512566
:100228000A128A1133300A128A1128250A128A11F1
:1002380083120313AE01AE0A02300A128A11512545
:100248000A128A1142300A128A1128250A128A11C2
:1002580083120313C201C20A4303031D342935293B
:100268003A290630BB003B08FD003E290E30BB0092
:100278003B08FD0000300A128A1109240A128A116B
:10028800831203132908AF002808AE000A128A1146
:1002980043260A128A118312031341185429582934
:1002A8008312031306155B29831203130611B4285E
:1002B8000A128A1112280B1D62296329B7290530F1
:1002C80081000B110130A0002008FB077B087D0688
:1002D800031D6F29702982297C08031D742975293B
:1002E8007C29403086062030BF004E30C00082296D
:1002F800203086063030BF007530C0000030A100C5
:100308007D08C83CA000031CA1037B08A200A30130
:1003180021082306031D922920082206031D95297A
:100328009629A1297C08031D9A299B299E294030DA
:100338008606A02920308606FB014303031DA52954
:10034800A629B7290130C5070318C60A0030C60711
:1003580040084602031DB2293F084502031CB5297F
:10036800B629B729C3018B1CBA29BB29CD2900306E
:10037800F600F7000A128A115D260A128A11831202
:100388000313C1013B300A128A11D0250A128A11BF
:100398008B10831203138C1ED229D329342A1A08EE
:1003A800A0002008FA0061307A06031DDC29DD2947
:1003B800F1290130A0002008C9074908A000200839
:1003C800F00000300A128A1128260A128A11FC014C
:1003D80083120313C301C30A1F2A62307A06031D5E
:1003E800F629F729082A0130A0002008C80748087C
:1003F800A0002008F00001300A128A1128260A12EB
:100408008A11FC01FC0AEC2963307A06031D0D2AC7
:100418000E2A1F2A0130A0002008C7074708A0009D
:100428002008F00002300A128A1128260A128A11BE
:1004380083120313C301C101C10A00300A128A11D1
:100448005E240A128A117108F7007008F6000A1271
:100458008A115D260A128A11FA01831203138C127B
:100468002708FF0026088A0025088400240E830038
:10047800FE0E7E0E090083120313B1003108AE0090
:100488002E08CC0000300A128A11B1250A128A11EE
:10049800C33083120313AF00CC30AE00AE0B522A28
:1004A800AF0B522A000003300A128A11EF250A12F4
:1004B8008A11213083120313AF007530AE00AE0BE2
:1004C800632AAF0B632A682A03300A128A11EF25C0
:1004D8000A128A11213083120313AF007530AE005F
:1004E800AE0B742AAF0B742A792A03300A128A11C8
:1004F800EF250A128A11213083120313AF007530D9
:10050800AE00AE0B852AAF0B852A8A2A02300A1262
:100518008A11EF250A128A11213083120313AF00C2
:100528007530AE00AE0B962AAF0B962A9B2A283060
:100538000A128A11EF250A128A1102308312031354
:10054800B0004530AF00A930AE00AE0BA92AAF0B02
:10055800A92AB00BA92A0C300A128A11EF250A120F
:100568008A11023083120313B0004530AF00A9305E
:10057800AE00AE0BBD2AAF0BBD2AB00BBD2A0130B1
:100588000A128A11EF250A128A1102308312031304
:10059800B0004530AF00A930AE00AE0BD12AAF0B8A
:1005A800D12AB00BD12A06300A128A11EF250A1275
:1005B8008A11023083120313B0004530AF00A9300E
:1005C800AE00AE0BE52AAF0BE52AB00BE52A080012
:1005D80083120313AE01A91FF22AF32AFA2AA809E3
:1005E800A909A80A0319A90AAE01AE0AAB1FFD2A78
:1005F800FE2A072BAA09AB09AA0A0319AB0A01307C
:10060800AC002C08AE06AF01B00128082904031974
:100618000E2B0F2B462BAD01AD0A1D2B01300310FD
:10062800A80DA90DFF3E031D132B0130AC002C08AB
:10063800AD07A91F202B212B122B01300310AF0D62
:10064800B00DFF3E031D222B29082B02031D2E2B64
:1006580028082A02031C312B322B392B2808AA021E
:100668002908031CAB03AB022F1401300310A90C9B
:10067800A80CFF3E031D3A2B0130AD02031D452B8C
:10068800462B212B2E0803194A2B4B2B502BAF0935
:10069800B009AF0A0319B00A3008A9002F08A8004A
:1006A800080083120313AE01AB1F5B2B5C2B632B7B
:1006B800AA09AB09AA0A0319AB0AAE01AE0AA91F17
:1006C800662B672B6C2BA809A909A80A0319A90A84
:1006D800280829040319712B722BA12BAD01AD0A2F
:1006E800802B01300310A80DA90DFF3E031D762BAA
:1006F8000130AC002C08AD07A91F832B842B752B68
:1007080029082B02031D8A2B28082A02031C8D2B7B
:100718008E2B942B2808AA022908031CAB03AB02D2
:1007280001300310A90CA80CFF3E031D952B0130C6
:10073800AD02031DA02BA12B842B2E080319A52B7A
:10074800A62BAB2BAA09AB09AA0A0319AB0A2B08DB
:10075800A9002A08A800080083120313BA00330866
:10076800023EB4003408B9000230B4003408B700BF
:100778000A30A8000030A9003A08B400B5013408CE
:10078800AA003508AB000A128A1155230A128A11E9
:10079800831203132808303EB6003608B80039081B
:1007A800B4003408AE0032080A128A1151250A1220
:1007B8008A118312031338080A128A1173250A1240
:1007C8008A11013083120313B9020A30A8000030DD
:1007D800A9003A08B400B5013408AA003508AB00EE
:1007E8000A128A11EC220A128A11831203132808AA
:1007F800B6003608BA003A08031D032C042C052C51
:10080800082C0130B702BC2B080083120313AD007B
:1008180008302D02031C112C122C152CA801A9013B
:100828005D2C2D18182C1C2C831203139F151F2CBC
:10083800831203139F112D08AA0001300310AA0C7C
:10084800FF3E031D222C2A182A2C2E2C8312031358
:100858001F16312C831203131F122D08AA00023011
:100868000310AA0CFF3E031D342C2A183C2C402CE4
:10087800831203139F16432C831203139F122830ED
:1008880083120313AA00AA0B472C4A2C83120313C2
:100898001F151F19502C512C4D2C1E08AC00831607
:1008A80003131E0883120313AB002C08A9002B089E
:1008B800A8000800F50008307502031C642C652C9C
:1008C800682CF001F101AC2C75186B2C6F2C83127D
:1008D80003139F15722C831203139F117508F200DE
:1008E80001300310F20CFF3E031D752C72187D2C8D
:1008F800812C831203131F16842C831203131F12D7
:100908007508F20002300310F20CFF3E031D872C1D
:1009180072188F2C932C831203139F16962C831214
:1009280003139F122930F200F20B982C0000831257
:1009380003131F151F19A12CA22C9E2C1E08F400AE
:10094800831603131E08F3007408F1007308F000FF
:10095800080004308A000408840A8207003420341E
:100968002034203420345634493420345834553413
:1009780020344C345934203420342034203400348A
:10098800203420342034543441344E3420344D340F
:100998004134493420344E3441344D3420342034E9
:1009A8000034203453345034313420342034533418
:1009B80050343234203420345334503433342034D7
:1009C800003474346F3463342034643469346E34DE
:1009D800003463346834653463346B340A34003467
:1009E80074346F346334203464346F3400348312C5
:1009F800031317159715831603130711112D831267
:100A0800031312109210212D831203131214921043
:100A1800212D831203139214212D0030003A03195B
:100A2800162D212D0130013A0319032D053A03191A
:100A3800082D143A03190D2D212D83121215F030AB
:100A4800831603139200080083120313B000AE014B
:100A5800AF01432D2E08300784000A128A11AD24F5
:100A68000A128A110A128A1173250A128A11013090
:100A780083120313AE070318AF0A0030AF072E081E
:100A8800300784000A128A11AD240A128A11003A2A
:100A9800031D4F2D502D2E2D080083120313B10076
:100AA800652D2E08BF3E0A128A11EF250A128A11F7
:100AB800722D2E087F3E0A128A11EF250A128A111A
:100AC800722D3108AF00B0013008003A03196D2DBE
:100AD8005D2D2F08023A0319552D5D2D080083124C
:100AE8000313AD00CB01CB0A2D08F0390A128A1185
:100AF80092250A128A11831203132D08AC000330C1
:100B08000310AC0DFF3E031D842D03102C0DF0398E
:100B18000A128A1192250A128A11080083120313F5
:100B2800AB004B08AA002A08AB042B0804380A12A9
:100B38008A11B1250A128A11831203132B08FB3973
:100B48000A128A11B1250A128A115230831203132C
:100B5800AA00AA0BAD2D0000080083120313A900F8
:100B68000A128A11FF260A128A11831203134C08EB
:100B78000A128A1188260A128A1183120313290875
:100B880044040A128A1188260A128A110A128A1142
:100B9800F6260A128A110800F200E22D7208840073
:100BA8000A128A11AD240A128A110A128A11DF2642
:100BB8000A128A110130F1007108F20772088400E4
:100BC8000A128A11AD240A128A11003A031DED2D6A
:100BD800EE2DD22D080083120313AD00CB012D0892
:100BE800F0390A128A1192250A128A118312031304
:100BF8002D08AC0003300310AC0DFF3E031DFF2D84
:100C080003102C0DF0390A128A1192250A128A1142
:100C180008008316031318158130990018128312DF
:100C28000313981783160313071787179816831249
:100C380003131816831603138C160B178B17181328
:100C48008312031318130800F100831603178C1876
:100C58002E2E2F2E292E7108831203178D0070084F
:100C68008C00831603178C130C158B1355308D00CD
:100C7800AA308D008C148B170C118C10080083126D
:100C880003132E18482E4C2E8312031317164F2EBB
:100C980083120313171297122F08B1002E08B00001
:100CA8000310B10CB00C0310B10CB00C3008950057
:100CB80008007618602E642E831203131716672E09
:100CC80083120313171297127708F9007608F800B1
:100CD8000310F90CF80C0310F90CF80C78089500BF
:100CE80008007E088A007F0882000A128A11752689
:100CF8000A128A118000840A04087D060319003448
:100D0800FF0A0319FE0A792E83120313A8000A1298
:100D18008A11C5260A128A11831203132808930020
:100D28008C1D972E982E942E8C1108008312031375
:100D3800A8002808831203178D00831603178C1345
:100D48000C14831203170C08080001300A128A11C8
:100D5800EF250A128A11413083120313AE00AE0B3D
:100D6800B32EB62E0800831203131F179F131F14E8
:100D7800831603139F171F171F109F101F119F1112
:100D88000800831603131419CA2ECB2EC52E11087A
:100D98001F39031DD02ED12EC52E080028308312EE
:100DA80003139400831603139101940131309300C7
:100DB800871507160800F00083160313981CE52E04
:100DC800E62EE02E7008831203139900080083169C
:100DD8000313811101118110011081128B178B16D9
:100DE8000B1108000A128A11C5260A128A118316E5
:100DF8000313111508000A128A11C5260A128A114E
:100E08008316031311140800803425340234003487
:100E18000134FF34013408348316031301170B1609
:060E28008B1708000234E4
:02400E003A3F37
:00000001FF
